:1000000019C028C027C026C025C024C023C022C0D4
:10001000CDC120C01FC01EC01DC01CC01BC01AC047
:1000200019C018C017C010C115C014C013C012C029
:1000300011C010C011241FBECFEFCDBFDFE3DEBF64
:100040002FE3A0E8BFE301C01D92A338B207E1F798
:10005000BCD1C5C1D5CFCF93DF93C82FD0E0A7E0E7
:10006000B0E0E1E4F3E01092380A1092390A2FE987
:1000700086E891E0215080409040E1F700C0000008
:1000800087E090E020E850E040E02695009779F086
:1000900020FF09C0BF01082E02C0759567950A941C
:1000A000E2F7460F571F01972695009789F740936F
:1000B000380A5093390A83E294EF0197F1F700C0B0
:1000C0000000CE010A2E02C0959587950A94E2F7AA
:1000D00080FF09C09FE32DE083E0915020408040E5
:1000E000E1F700C00000119708F0BDCF1092380A68
:1000F0001092390A2FE38DE093E021508040904028
:10010000E1F700C00000DF91CF91089528E030E0D2
:1001100050E040E0E1E4F3E080FF09C0BF01022EBF
:1001200002C0759567950A94E2F7460F571F8695AA
:100130002150310989F74093380A5093390A0895BC
:10014000E0E1F8E094E1908390E0880F991F8487C4
:1001500081EE81870895E0E0FAE095E0928783E1FF
:10016000818381858E7F818721E433E026AB37ABA5
:1001700010AE11AE90830895809100048860809342
:100180000004809100048F7B809300048091000420
:1001900080688093000410920404809116048860A3
:1001A0008093160495E090930A0A83E18093010AF4
:1001B0008091090A8E7F8093090A21E433E020931D
:1001C000360A3093370A1092380A1092390A9093FF
:1001D000000A90E080E0FBD094E190931008885FE3
:1001E00090E0880F991F80931C0881EE8093190876
:1001F00087E090E020E850E040E0E1E4F3E026957D
:10020000009779F020FF09C0BF01082E02C0759544
:1002100067950A94E2F7460F571F019726950097B6
:1002200089F74093380A5093390A2FE986E891E01C
:10023000215080409040E1F700C000001092380A41
:100240001092390A789408951F920F920FB60F9268
:1002500011242F933F934F935F936F937F938F93CB
:100260009F93AF93BF93EF93FF9380911B0886FFFB
:1002700004C080911B0887FD4CC080911B0883FD42
:100280004BC080911B0882FD5FC080911B0886FDDA
:100290001DC080911B0887FD42C080911B0886FF0E
:1002A00004C080911B0880FF74C0FF91EF91BF9143
:1002B000AF919F918F917F916F915F914F913F91FE
:1002C0002F910F900FBE0F901F90189580911B08D3
:1002D00080FFDFCF83E080931A0880911B0881FFA5
:1002E000E4CF1092823F04C08091823F8330E8F6D1
:1002F00080911B0885FFF8CF8091080486FB882732
:1003000080F991E0892780931D0883E080931A0883
:10031000CCCF81E0A0DEC9CF82E09DDEC6CF809148
:100320001B0881FF14C080911B0884FD36C0109209
:10033000823F05C08091823F833008F0B6CF809124
:100340001B0885FFF7CFD8CF83E085DEAECF809145
:100350001D088093813F2091813F88E090E050E02C
:1003600040E0E1E4F3E020FF09C0BF01082E02C035
:10037000759567950A94E2F7460F571F26950197E2
:1003800091F74093380A5093390A87E080931A080E
:100390008CCF82E080931A0888CF80911B08806CF4
:1003A00080931B0882E080931A087FCF8F938FB7CA
:1003B0008F938091823F8F5F8093823F81E0809313
:1003C0000B0A8F918FBF8F911895D6DEFFCF03D088
:1003D000808199270895FC01E050FC4E0895F8941F
:0203E000FFCF4D
:00000001FF
